:020000040800F2
:100000001807002045010008C9250008CB25000875
:10001000CF250008D3250008D725000800000000E0
:10002000000000000000000000000000DB250008C8
:10003000DD25000800000000DF250008E12500089C
:100040005F0100085F0100085F0100085F01000810
:100050005F0100085F0100084D27000863270008C2
:100060005F0100085F0100087B2700085F010008AE
:100070005F0100085F0100085F0100085F010008E0
:100080005F0100085F0100085F0100085F010008D0
:100090005F0100085F0100085F0100089327000866
:1000A0005F0100085F0100085F0100085F010008B0
:1000B0005F0100085F0100085F0100085F010008A0
:1000C0005F0100085F0100085F0100085F01000890
:1000D0005F0100080B2A000849520008832A000823
:1000E0005F0100085F0100085F0100085F01000870
:1000F0005F0100085F0100085F0100085F01000860
:100100005F0100085F0100085F0100085F0100084F
:10011000554F0008E54C00085F0100085F0100082A
:100120005F0100085F0100085F0100085F0100082F
:10013000DFF80CD005F074FD00480047F51F0008FB
:10014000180700200648804706480047FEE7FEE7FC
:10015000FEE7FEE7FEE7FEE7FEE7FEE7FEE7FEE777
:1001600047020008310100080CB500200190009002
:100170006C48006840F480306A49086000BF6948F4
:10018000006800F4003000900198401C0190009835
:1001900018B90198B0F5A06FF1D16248006800F479
:1001A000003010B10120009001E000200090009884
:1001B000012843D15C48006840F010005A490860AB
:1001C0000846006820F0030008600846006840F018
:1001D0000200086053484068524948600846406839
:1001E00048600846406840F48060486008464068BF
:1001F00020F47C1048600846406840F4E8104860ED
:100200000846006840F08070086000BF45480068FC
:1002100000F000700028F9D04248406820F0030048
:10022000404948600846406840F00200486000BF0E
:100230003C48406800F00C000828F9D10CBD10B50E
:10024000FFF792FF10BD10B53648006840F001007E
:1002500034490860084640683449084031494860DC
:1002600008460068324908402E4908600846006880
:1002700020F4802008600846406820F4FE004860B2
:100280004FF41F008860FFF7DAFF4FF00060294944
:10029000086010BD10B5002100200022214B5B68D2
:1002A00003F00C0121B1042906D0082928D107E068
:1002B000214B224C236027E01F4B204C236023E07E
:1002C000184B5B6803F47010164B5B6803F48032C4
:1002D000022303EB904022B9194B4343174C236090
:1002E0000DE0104B5B6803F4003323B1144B434320
:1002F000124C236003E0104B4343104C236003E097
:100300000D4B0E4C236000BF00BF064B5B68C3F370
:1003100003130C4CE15C094B1B68CB40074C23607A
:1003200010BD000000100240002002400000FFF855
:10033000FFFFF6FE08ED00E000127A00000000204A
:1003400000093D000400002031490143314A116099
:10035000704770B5002100230F22C47804B32D4CE0
:10036000246804F4E064C4F5E064210AC1F10403E4
:10037000CA40447804FA03F1847814402143090107
:10038000254C0678A155047804F01F050124AC40E3
:1003900005786D11AD0005F1E025C5F8004109E0D3
:1003A000047804F01F050124AC401C4D067876113A
:1003B00045F8264070BD1A4A0A400243154B1B1FE0
:1003C0001A60704739B1134A121D12680243114B6B
:1003D0001B1D1A6006E00F4A121D126882430D4B66
:1003E0001B1D1A607047042808D14FF0E0210969ED
:1003F00041F004014FF0E022116107E04FF0E021ED
:10040000096921F004014FF0E022116170470000FA
:100410000000FA050CED00E000E400E080E100E0FF
:1004200080FFFF1F10B5012000F0A2FC002000F0AB
:100430009FFC10BD2A49086070472949091F0860C0
:100440007047274984310860704701460020254ADB
:1004500010884FF67F4210400843224A10807047B0
:10046000014600201F4A10884FF680721040084352
:100470001C4A1080704708B500220092194A2C3A95
:100480000092009A02440092009A116008BD08B5DB
:1004900001460020009013482C3800900098084432
:1004A00000900098008808BD0D489C300068C0B2DC
:1004B00070470C480830008840F0010009490831B5
:1004C000088070470648A0300068C0B270470548F1
:1004D0000830008840F00200024908310880704767
:1004E00004860D422C6C0040002044490860091D20
:1004F0000860091D0860091D086041483F49143122
:100500000860704700213D498279002A3AD00A46A6
:10051000126803689A430B461A600A1D1268036842
:100520009A430B1D1A60027911440A6803681A4342
:100530000A60324A0832126803689A432F4B083324
:100540001A601A1D126803689A432C4B0C331A6008
:100550004279102A0ED11A1F126803681A43274BDA
:1005600008331A601A1D126803681A43234B0C33B0
:100570001A600DE02149427911440A6803681A4360
:100580000A6005E0027911440A6803689A430A6028
:1005900070470021016001710C21417100218171BE
:1005A00070471649103109680143144A103211602E
:1005B000704701460020114A143212680A400AB1FD
:1005C000012000E0002070470C491431086070479A
:1005D000014600200022094B1B6803EA0102074B79
:1005E00014331B680B4013B10AB1012000E0002056
:1005F0007047024914310860704700000004014050
:10060000FFFF0F0010B50446CC48844208D10121F9
:10061000042000F093FB0021042000F08FFB46E053
:10062000C748844208D10121082000F087FB00213F
:10063000082000F083FB3AE0C248844208D101213F
:10064000102000F07BFB0021102000F077FB2EE053
:10065000BD48844208D10121202000F06FFB002119
:10066000202000F06BFB22E0B848844208D1012131
:10067000402000F063FB0021402000F05FFB16E00B
:10068000B348844208D10121802000F057FB0021AB
:10069000802000F053FB0AE0AE48844207D10121DC
:1006A000801500F04BFB0021A01500F047FB10BDAA
:1006B00010B50121084600F041FB0021012000F0A7
:1006C0003DFB10BD2DE9F04102460025002600202B
:1006D00000230024002791F803C00CF00F0591F8C7
:1006E00003C00CF0100CBCF1000F03D091F802C055
:1006F0004CEA050591F800C0BCF1000F31D0146838
:1007000000202BE04FF0010C0CFA00F3B1F800C010
:100710000CEA03069E4220D183004FF00F0C0CFA26
:1007200003F7BC4305FA03FC4CEA040491F803C048
:10073000BCF1280F06D14FF0010C0CFA00FCC2F8F6
:1007400014C00AE091F803C0BCF1480F05D14FF086
:10075000010C0CFA00FCC2F810C0401C0828D1D3D0
:100760001460B1F800C0BCF1FF0F34DD5468002004
:100770002EE000F1080C4FF0010808FA0CF3B1F874
:1007800000C00CEA03069E4221D183004FF00F0CFB
:100790000CFA03F7BC4305FA03FC4CEA040491F895
:1007A00003C0BCF1280F05D100F1080C08FA0CF8C1
:1007B000C2F8148091F803C0BCF1480F07D100F1D2
:1007C000080C4FF0010808FA0CF8C2F81080401C21
:1007D0000828CED35460BDE8F0814FF6FF71018048
:1007E000022181700421C170704702460020936885
:1007F0000B400BB1012000E00020704701468868E3
:1008000080B2704702460020D3680B400BB1012034
:1008100000E0002070470146C86880B2704701615F
:100820007047416170470AB1016100E04161704762
:10083000C16070474FF480320A43826181618261F6
:1008400082698269704702460020434B18684FF660
:100850008073184040EA021008433F4B186070470D
:100860003E49C8617047F0B50A46002300240021C4
:10087000002500F00046B6F1004F02D1364EF16976
:1008800001E0354E7168C0F3034583B200F44016B1
:10089000B6F5401F08D121F070612F4E766826F022
:1008A00070662D4F7E6012E000F48016B6F5801F52
:1008B00006D1032606FA05F4A14341F0706106E073
:1008C000460D360103FA06F6B14341F0706122B1DC
:1008D000460D360103FA06F6314300F00046B6F144
:1008E000004F02D11C4EF16101E01B4E7160F0BD62
:1008F00030B500228B071C0F0F2303FA04F2164BAE
:1009000008338C1053F824309343134C08348D1063
:1009100044F8253023468C1053F824308C07240FDC
:1009200000FA04F423430C4C08348D1044F82530AD
:1009300030BD0A49DC310860704700000008014002
:10094000000C01400010014000140140001801405B
:10095000001C014000200140000001400000204236
:1009600010B50121080700F0F6F900214FF0805082
:1009700000F0F1F910BD2A49086270472849086162
:10098000704701460020274A106820F0E000084325
:10099000106070472249A0310860704710B50246C8
:1009A0000020204B186820F00300104318601E4BF5
:1009B0001B6843F004031C4C2360012901D130BFA4
:1009C00000E020BF184B1B6823F00403164C236083
:1009D00010BD1448006840F0040012490860084641
:1009E000006840F0020008600F48006840F0040012
:1009F0000D49086000BF00BF30BF704701460020AE
:100A0000084A52680A400AB1012000E000207047FD
:100A10000449096841EA8001024A116070470000F8
:100A200000000E420070004010ED00E0DF4800685A
:100A300040F00100DD49086008464068DC49084094
:100A4000DA49486008460068DA490840D749086032
:100A50000846006820F4802008600846406820F4BA
:100A6000FE0048604FF41F0088607047CF49096856
:100A700021F48031CD4A11601146096821F48021AA
:100A80001160B0F5803F03D0B0F5802F0ED106E0A5
:100A9000C649096841F48031C44A116007E0C3497E
:100AA000096841F4A021C14A116000E000BF00BF05
:100AB000704710B501460022002300204A11012A88
:100AC00002D1BA4C236806E0022A02D1B74C236A4D
:100AD00001E0B64C636A01F01F02012494401C40FF
:100AE0000CB1012000E0002010BD38B500200090BE
:100AF0000024002500BF3120FFF7DBFF05460098EA
:100B0000401C00900098B0F5A06F01D0002DF2D0ED
:100B10003120FFF7CEFF08B1012400E00024204679
:100B200038BD01460020A14A106820F0F80040EAD4
:100B3000C10010607047A04908607047024600205D
:100B40009A4B586820F47C1042EA01031843974BF3
:100B50005860704798490866704701460020934ADC
:100B6000506820F003000843506070478F48406889
:100B700000F00C007047014600208C4A506820F0BD
:100B8000F00008435060704701460020874A5068D3
:100B900020F4E06008435060704701460020834A1B
:100BA000506820F4605040EAC1005060704729B19D
:100BB0007E4A527A02437D4B5A7204E07B4A527A53
:100BC00082437A4B5A7270477B49D831086070472C
:100BD00001460020754A506820F4404008435060A8
:100BE00070470021714A20321170704A82F820103B
:100BF000012802D004280AD104E001216B4A2032E6
:100C0000117005E00521694A2032117000E000BF33
:100C100000BF70476949086070476449096A014329
:100C2000624A11627047654944390860704730B5BF
:100C300000210022002400235C4D6D6805F00C01AA
:100C400021B1042905D0082923D105E05C4D0560B8
:100C500022E05B4D05601FE0544D6D6805F4701295
:100C6000524D6D6805F48034022505EB92421CB9A3
:100C7000544D554305600BE04C4D6D6805F400354F
:100C80001DB1504D5543056002E04D4D5543056083
:100C900002E04B4D056000BF00BF444D6D6805F09C
:100CA000F0010909484D6B5C0568DD4045603F4D2A
:100CB0006D6805F4E061090A434D6B5C4568DD40F1
:100CC00085603A4D6D6805F46051C90A3E4D6B5C14
:100CD0004568DD40C560354D6D6805F44041890BC0
:100CE0003A4D6B5CC568B5FBF3F5056130BD29B1C4
:100CF0002E4A526902432D4B5A6104E02B4A526935
:100D000082432A4B5A61704729B1284A92690243AB
:100D1000264B9A6104E0254A92698243234B9A61EB
:100D2000704729B1214AD2690243204BDA6104E0BD
:100D30001E4AD26982431D4BDA61704729B11B4AB2
:100D4000D2680243194BDA6004E0184AD268824341
:100D5000164BDA60704729B1144A12690243134BEB
:100D60001A6104E0114A12698243104B1A617047FC
:100D700012494039086070470F49C86470470B49F1
:100D8000C87170470948406A40F08070074948625E
:100D9000704701460020054A92680A400AB10120C6
:100DA00000E000207047014988727047001002403F
:100DB0000000FFF8FFFFF6FE0000424280044242BE
:100DC00000127A0000093D001400002024000020D9
:100DD00010B50446FE48844208D10121C014FFF733
:100DE000ADFF0021E014FFF7A9FFC4E0B4F1804F8C
:100DF00008D101210846FFF7AEFF00210120FFF7CF
:100E0000AAFFB8E0F348844208D101210220FFF78D
:100E1000A2FF00210220FFF79EFFACE0EE488442D3
:100E200008D101210420FFF796FF00210420FFF7DD
:100E300092FFA0E0E948844208D101210820FFF791
:100E40008AFF00210820FFF786FF94E0E4488442EF
:100E500008D101211020FFF77EFF00211020FFF7AD
:100E60007AFF88E0DF48844208D101212020FFF783
:100E700072FF00212020FFF76EFF7CE0DA488442F9
:100E800008D101214014FFF759FF00216014FFF73A
:100E900055FF70E0D548844209D10121C804FFF70D
:100EA0004DFF00214FF40020FFF748FF63E0D048DA
:100EB000844209D101210805FFF740FF00214FF4CA
:100EC0008010FFF73BFF56E0CA48844209D1012158
:100ED0004805FFF733FF00214FF40010FFF72EFF06
:100EE00049E0C548844208D101214020FFF733FF83
:100EF00000214020FFF72FFF3DE0C048844208D189
:100F000001218020FFF727FF00218020FFF723FF2A
:100F100031E0BB48844208D101218015FFF71BFF57
:100F20000021A015FFF717FF25E0B648844209D13C
:100F300001210804FFF702FF00214FF48030FFF782
:100F4000FDFE18E0B048844209D101214804FFF7B2
:100F5000F5FE00214FF40030FFF7F0FE0BE0AB4848
:100F6000844208D101218804FFF7E8FE00214FF4F4
:100F70008020FFF7E3FE10BD00220288944B9842C8
:100F80000ED0994B98420BD0B0F1804F08D0914BC6
:100F9000984205D0904B984202D0904B984204D191
:100FA0004FF68F731A404B881A438D4B984207D0E7
:100FB0008C4B984204D04FF6FF431A40CB881A431B
:100FC00002808B8883850B880385814B98420BD0E8
:100FD000854B984208D08B4B984205D08A4B98425B
:100FE00002D08A4B984201D10B7A03860123838277
:100FF000704770B5002400220023058C4FF6FE7662
:1010000035400584028C8388048B4FF68F752C4005
:10101000B51E2C400D882C43751E2A400D892A438D
:101020004D882A436A4DA8420BD06F4DA84208D084
:10103000744DA84205D0744DA84202D0734DA84209
:1010400013D14FF6F7752A404D892A434FF6FB75A9
:101050002A408D882A434FF6FF652B404FF6FF55F7
:101060002B408D892B43CD892B4383800483CD88EE
:101070008586028470BD70B5002400220023058C93
:101080004FF6EF7635400584028C8388048B48F652
:10109000FF752C404FF6FF452C400D884FF6FF762C
:1010A00006EA05252C434FF6DF752A400D8906EA2E
:1010B00005152A434D8806EA05152A43444DA842E2
:1010C00002D0494DA8421DD14FF67F752A404D8967
:1010D0004FF6FF7606EA05152A434FF6BF752A40FC
:1010E0008D8806EA05152A434FF6FF352B404FF24F
:1010F000FF752B408D8906EA85052B43CD8906EACD
:1011000085052B4383800483CD880587028470BDC9
:1011100070B5002400220023058C4FF6FF66354091
:101120000584028C8388848B4FF68F752C404FF694
:10113000FC752C400D882C434FF6FF552A400D8935
:101140004FF6FF7606EA05252A434D8806EA05256F
:101150002A431F4DA84202D0234DA8421DD14FF271
:10116000FF752A404D894FF6FF7606EA05252A438A
:101170004FF6FF352A408D8806EA05252A434EF6AC
:10118000FF752B404DF6FF752B408D8906EA05153E
:101190002B43CD8906EA05152B4383808483CD88B4
:1011A0008587028470BD70B5002200230024058C61
:1011B0004EF6FF7635400584038C8488828B48F692
:1011C000FF752A404FF6FF452A400D8820E00000B9
:1011D000002C01400004004000080040000C0040CA
:1011E000001000400014004000340140004C014059
:1011F000005001400054014000180040001C004015
:1012000000200040004001400044014000480140EF
:101210004FF6FF7606EA05252A434DF6FF752B406B
:101220000D8906EA05352B434D8806EA05352B4323
:10123000FA4DA84202D0FA4DA84208D14BF6FF75EC
:101240002C408D894FF6FF7606EA85152C43848065
:101250008283CD88A0F84050038470BD828B4FF20A
:10126000FF331A408283828B4FF6FF7303EA012318
:101270001A4382837047F0B50C46154600220021C0
:101280000026078C4EF6FF7C07EA0C070784828B4A
:10129000018C4FF6FF7707EA043640F6FF473A40E5
:1012A0004FF6FF7707EA05273A434FF6FF7707EA3D
:1012B00003373A43D94FB8420ED0D94FB8420BD07A
:1012C000B0F1804F08D0D74FB84205D0D64FB842C2
:1012D00002D0D64FB84206D14DF6FF77394046F4DA
:1012E0008057394305E047F6FF57394044F48057AB
:1012F000394382830184F0BD828B4FF6F3731A4029
:101300008283828B0A4382837047F0B50C46154670
:10131000002200210026078C4FF6FF6C07EA0C071D
:101320000784828B018C4FF6FF7707EA04264FF67D
:101330000C773A404FF6FF7707EA03172F433A43FB
:10134000B64FB8420ED0B64FB8420BD0B0F1804F76
:1013500008D0B44FB84205D0B34FB84202D0B34F13
:10136000B84206D14FF6FF57394046F480773943EB
:1013700005E04FF2FF57394044F4807739438283C8
:101380000184F0BD028B4FF2FF331A400283028BBF
:101390004FF6FF7303EA01231A4302837047F0B547
:1013A0000C461546002200210026078C4FF6EF7CE4
:1013B00007EA0C070784028B018C4FF6FF7707EAD8
:1013C000041640F6FF473A404FF6FF7707EA033727
:1013D0003A434FF6FF7707EA05273A438F4FB84263
:1013E0000ED08F4FB8420BD0B0F1804F08D08D4F48
:1013F000B84205D08C4FB84202D08C4FB84206D1CB
:101400004FF6DF77394046F01007394305E04FF6D5
:101410005F77394044F01007394302830184F0BDFF
:10142000028B4FF6F3731A400283028B0A43028346
:101430007047F0B50C46154600220021068C4FF689
:10144000FE773E400684028B018C4FF60C763240CC
:101450007E1C06EA03162E433243704EB0420ED075
:101460006F4EB0420BD0B0F1804F08D06D4EB042FD
:1014700005D06D4EB04202D06C4EB04206D14FF650
:10148000FD76314044F00106314305E04FF6F57634
:10149000314044F00106314302830184F0BD70B550
:1014A00005460C465D4885420ED05D4885420BD00E
:1014B000B5F1804F08D05B48854205D05A48854237
:1014C00002D05A48854200D100E000BF208850B9C0
:1014D0002389A28861882846FFF7ABFFE188284668
:1014E000FFF79EFF25E0208804280AD12389A288DF
:1014F00061882846FFF753FFE1882846FFF742FF3F
:1015000017E0208808280AD12389A2886188284604
:10151000FFF7FBFEE1882846FFF7EEFE09E023898E
:10152000A28861882846FFF7A6FEE1882846FFF7D3
:1015300095FE70BD2DE9F04105460C4600260127B9
:10154000608808B9022600E00026A088012801D1A1
:10155000022700E001272088A0B92389A28861889A
:101560002846FFF766FFE1882846FFF759FF2389E1
:101570003A4631462846FFF712FFE1882846FFF732
:1015800001FF13E02389A28861882846FFF707FF3F
:10159000E1882846FFF7F6FE23893A463146284679
:1015A000FFF747FFE1882846FFF73AFFBDE8F081E3
:1015B0000A884B881A438B881A43CB881A430B89B5
:1015C0001A434B891A438B891A43A0F84420704769
:1015D0004FF6FF71818000210180C180418001723E
:1015E00070470021018041808180C180018141815B
:1015F0008181C1817047002101804180012181806A
:101600000021C180018170470021018041808180DB
:10161000C18001814181818170470000002C01401F
:10162000003401400004004000080040000C00406D
:1016300021B1028842F00102028004E002884FF6E4
:10164000FE731A400280704731B1B0F8442042F472
:101650000042A0F8442005E0B0F84420C2F30E0296
:10166000A0F8442070471AB183890B43838102E0BC
:1016700083898B43838170478182704741EA0203EB
:10168000A0F8483070471AB183890B43838102E088
:1016900083898B438381704701894FF6F87211402B
:1016A000018170470A46002101894FF68F73194066
:1016B00011430181704730B504460D462946204646
:1016C000FFF7F0FF208940F00700208130BD2DE9B1
:1016D000F04104460D4616461F46602D06D13B4696
:1016E000012231462046FFF75AFE05E03B46012223
:1016F00031462046FFF79DFE29462046FFF7D2FFE0
:10170000208940F007002081BDE8F08130B50C460B
:1017100000210189C9B24FF6FF7505EA032515437B
:1017200025432943018130BD2DE9F04105460E4690
:1017300017469846002443463A4631462846FFF766
:10174000E5FF2C894FF6F870044044F007044FF68B
:101750008F70044044F070042C81BDE8F081F0B536
:1017600004460D4616461F463B463246294620464D
:10177000FFF7CCFF208940F480402081F0BD018537
:10178000828270470A46002101884FF68F73194004
:10179000114301807047F0B50C4615461E460021E6
:1017A000002200230189028B038C4FF6F877394021
:1017B00021434FF6FC473A4040F201173A434FF6B7
:1017C000DD773B404FF6FF7707EA06172F433B4391
:1017D000018102830384F0BD0A460021018B4FF68C
:1017E0008F7319401143018370470A460021018B12
:1017F00048F6FF7319404FF6FF7303EA02231943BB
:10180000018370470A460021818B4FF68F73194080
:101810001143818370470A460021818B48F6FF738C
:1018200019404FF6FF7303EA02231943818370477F
:1018300021B1028842F08002028004E002884FF663
:101840007F731A400280704721B1828842F00402FF
:10185000828004E082884FF6FB731A4082807047D2
:1018600021B1828842F00802828004E082884FF62B
:10187000F7731A408280704721B1828842F00102DA
:10188000828004E082884FF6FE731A40828070479F
:101890000A460021018B4FF6F7731940114301836B
:1018A00070470A460021018B4FF2FF7319404FF633
:1018B000FF7303EA02231943018370470A4600219C
:1018C000818B4FF6F77319401143818370470A46A5
:1018D0000021818B4FF2FF7319404FF6FF7303EA2B
:1018E00002231943818370470A460021018B4FF67A
:1018F000FB7319401143018370470A460021018B95
:101900004FF6FF3319404FF6FF7303EA02231943E2
:10191000018370470A460021818B4FF6FB73194003
:101920001143818370470A460021818B4FF6FF33B4
:1019300019404FF6FF7303EA02231943818370476E
:101940000A460021018B4FF67F7319401143018332
:1019500070470A460021018BC1F30E014FF6FF7359
:1019600003EA02231943018370470A460021818B51
:101970004FF67F7319401143818370470A46002157
:10198000818BC1F30E014FF6FF7303EA0223194363
:10199000818370470A460021018C4FF6FD73194080
:1019A0001143018470470A460021018C4FF6F773FA
:1019B00019401143018470470A460021018C4FF6FB
:1019C000DF7319404FF6FF7303EA021319430184D2
:1019D00070470A460021018C4FF67F7319404FF67D
:1019E000FF7303EA02131943018470470A4600217A
:1019F000018C4FF6FF5319404FF6FF7303EA0223A1
:101A00001943018470470A460021018C4FF2FF738D
:101A100019404FF6FF7303EA02231943018470470C
:101A20000A460021018C4DF6FF7319404FF6FF73F3
:101A300003EA023319430184704730B500230124BF
:101A40008C40A3B2048C9C430484048C02FA01F5FC
:101A5000ADB22C43048430BD30B5002304248C4047
:101A6000A3B2048C9C430484048C02FA01F5ADB249
:101A70002C43048430BD70B5034600200024184672
:101A8000183001258D40ACB21D8CA5431D8409B1D1
:101A9000082909D100EB6100056825F07005056093
:101AA0000568154305600EE00D1FC5F34E0528447B
:101AB000056825F4E045056005684FF6FF7606EAFF
:101AC00002263543056070BD21B1028842F0020252
:101AD000028004E002884FF6FD731A4002807047CE
:101AE00021B1028842F00402028004E002884FF62D
:101AF000FB731A400280704721B1828842F0800255
:101B0000828004E082884FF67F731A40828070479B
:101B100002884FF6F7731A40028002880A43028057
:101B2000704782884FF68F731A40828082880A43FA
:101B30008280704702894FF6F8731A400281028949
:101B40000A430281704702894FF67F731A4002816F
:101B500002890A43028170478184704781857047FA
:101B6000818670470187704781877047A0F84010D1
:101B7000704702884FF6FF431A40028002880A43EA
:101B8000028070470146888E70470146088F704773
:101B90000146888F70470146B1F840007047014602
:101BA000888C70470146088D704702460020138AD2
:101BB0000B400BB1012000E000207047CA430282B5
:101BC000704730B50246002000230024158A05EA3C
:101BD0000103958905EA010413B10CB1012000E06D
:101BE000002030BDCA4302827047000010B5044691
:101BF000FB48844209D101218803FFF79FF80021A7
:101C00004FF48040FFF79AF832E0F648844209D159
:101C100001214804FFF79FF800214FF40030FFF73F
:101C20009AF825E0F048844209D101218804FFF7A1
:101C300092F800214FF48020FFF78DF818E0EB4870
:101C4000844209D10121C804FFF785F800214FF42F
:101C50000020FFF780F80BE0E548844208D101211D
:101C60000805FFF778F800214FF48010FFF773F8AC
:101C700010BD2DE9F04786B005460E460024A24669
:101C800000BFA1460027B08900B100BF2F462C8AB3
:101C90004CF6FF700440F08804432C82AC894EF669
:101CA000F3100440B0883189084371890843044324
:101CB000AC81AC8A4FF6FF400440B0890443AC824B
:101CC00001A8FEF7B4FFC648874202D1DDF810A094
:101CD00001E0DDF80CA0A88900F4004040B10AEB57
:101CE000CA0000EB0A1031684900B0FBF1F807E0C8
:101CF0000AEBCA0000EB0A1031688900B0FBF1F86A
:101D00006420B8FBF0F004012009642101FB108974
:101D1000A88900F4004040B1322000EBC900B0FBBC
:101D2000F1F000F00700044308E0322000EB091056
:101D30006421B0FBF1F000F00F0004432C8106B0E9
:101D4000BDE8F0874FF41651016000218180C18009
:101D500001810C21418100218181704710B502462B
:101D60000020108A4FF2FF0318400B884C88234351
:101D70008C882343CC8823431843108210BD002154
:101D8000018041808180C180704721B1828942F405
:101D90000052828104E082894DF6FF731A408281ED
:101DA0007047F0B50346002400260025002040F6C9
:101DB0006A17B94200D100BF1846C1F3421401F0BE
:101DC0001F06012707FA06F5012C01D10C3004E0AB
:101DD000022C01D1103000E014301AB107682F43F3
:101DE000076002E00768AF430760F0BD1AB1838A5D
:101DF0000B43838202E0838A8B4383827047028A8B
:101E00004FF6F0731A400282028A0A430282704738
:101E100082894FF2FF731A40828182890A4382814C
:101E2000704721B1828942F00202828104E08289F6
:101E30004FF6FD731A4082817047028A4FF6DF73B6
:101E40001A400282028A0A430282704721B1028A42
:101E500042F48042028204E0028A4BF6FF731A4089
:101E600002827047C1F30802828070470146888869
:101E7000C0F308007047818941F0010181817047FA
:101E8000028BD2B20283028B42EA012202837047A4
:101E9000028B02F47F420283028B0A430283704763
:101EA00021B1828A42F02002828204E0828A4FF6C7
:101EB000DF731A408282704721B1828A42F0100299
:101EC000828204E0828A4FF6EF731A408282704762
:101ED00021B1828A42F00802828204E0828A4FF6AF
:101EE000F7731A408282704721B1828942F400421E
:101EF000828103E08289C2F30E028281704721B1A0
:101F0000828A42F40062828204E0828A4FF2FF7386
:101F10001A4082827047828A4FF6FB731A4082828F
:101F2000828A0A438282704721B1828A42F0020289
:101F3000828204E0828A4FF6FD731A4082827047E3
:101F400002460020B1F5007F00D100BF13880B408E
:101F50000BB1012000E00020704701F40072B2F5DF
:101F6000007F00D100BFCA430280704770B50246AF
:101F7000002400230025002040F66A16B14200D15B
:101F800000BFC1F3421501F01F03012606FA03F357
:101F9000012D02D19689334006E0022D02D1168A26
:101FA000334001E0968A33400C12012606FA04F40D
:101FB0001688344013B10CB1012000E0002070BD40
:101FC00010B50022002340F66A14A14200D100BFE0
:101FD0000A1201249440A3B2DC43048010BD000027
:101FE000003801400044004000480040004C0040E0
:101FF0000050004001F0B9FEFE4A1421642001F0B7
:102000003DF94FF4FA6002F06FF902F0CDFAFA4AA6
:102010000A21642000F064FF4FF47A6002F064F952
:1020200000BFF64800680028FBD0F448406800284C
:10203000F7D0F248F2A10268F64803F023FEF54813
:1020400002F004FFFF2002F017FF642002F04CF9B9
:10205000EA48F1A14268EF4803F014FEED4802F0AF
:10206000F5FEFF2002F008FFF04A1421642001F081
:102070006EF940F2DC5002F037F9ED4A0A21642093
:1020800000F02EFF4FF47A6002F02EF94FF4FA6060
:1020900002F02AF9D9480068642190FBF1F084B27B
:1020A000204602F0AAFAD5480068642190FBF1F0BE
:1020B00084B2204602F0E2FB4FF47A7002F014F989
:1020C000CE480068642190FBF1F201FB12000A2166
:1020D00090FBF1F084B2204602F08FFAC748006806
:1020E000642190FBF1F201FB12000A2190FBF1F058
:1020F00084B2204602F0C2FB4FF47A7002F0F4F88A
:10210000BE4800680A2190FBF1F201FB120084B284
:10211000204602F072FAB94800680A2190FBF1F2F9
:1021200001FB120084B2204602F0A8FB4FF4FA60D3
:1021300002F0DAF8BF4A0A21642001F09FF84FF458
:102140007A7002F0D1F8BC4A0A21642000F0C8FE7F
:102150004FF47A6002F0C8F840F20F1000F075FEFC
:102160004FF4FA7002F0C0F801F01CFBB32000F04D
:102170006CFE4FF4FA7002F0B7F801F065F8AF4A60
:102180000A21642000F07EFF40F6B83002F0ACF87F
:10219000AB4A0A21642001F0DAF84FF4FA6002F049
:1021A000A3F8002001F0F2F9012002F061FC914A4D
:1021B0000A21642000F094FE4FF4FA6002F094F8D3
:1021C000002001F0E3F9022002F052FC894A0A21C2
:1021D000642000F085FE4FF4FA6002F085F80020DC
:1021E00001F0D4F9032002F043FC00220A2164200C
:1021F00000F048FF41F2883002F076F840F20F100C
:1022000000F023FE4FF47A7002F06EF88D4A0A2136
:10221000642000F0CEFE4FF47A6002F065F80020F2
:1022200000F013FE4FF47A7002F05EF8864A0A213D
:10223000642000F0BEFE40F6B83002F055F8834A44
:102240000A21642001F083F840F2DC5002F04CF8DF
:102250006A484068642190FBF1F084B2204602F0A5
:10226000CCF966484068642190FBF1F084B22046C6
:1022700002F004FB4FF47A7002F036F85F484068D1
:10228000642190FBF1F201FB12000A2190FBF1F0B6
:1022900084B2204602F0B1F958484068642190FBAE
:1022A000F1F201FB12000A2190FBF1F084B220460A
:1022B00002F0E4FA4FF47A7002F016F84F484068E2
:1022C0000A2190FBF1F201FB120084B2204602F0D9
:1022D00094F94A4840680A2190FBF1F201FB120090
:1022E00084B2204602F0CAFA4FF4FA6001F0FCFF13
:1022F000504A0A21642000F0C1FF4FF47A7001F0C7
:10230000F3FF514A0A21642000F0EAFD40F6B8309C
:1023100001F0EAFF40F20F1000F097FD4FF47A70E1
:1023200001F0E2FF4A4A0A21642000F0D9FD40F69C
:10233000B83001F0D9FF2F4A0A21642001F007F8D4
:1023400000F082FF2D484068642190FBF1F084B2D8
:10235000204601F003FA002001F018F900F074FFA4
:1023600026484068642190FBF1F084B2204602F0D8
:102370007FFB22484068642190FBF1F201FB1200D0
:102380000A2190FBF1F084B2204601F0E7F9002029
:1023900001F0FCF819484068642190FBF1F201FB60
:1023A00012000A2190FBF1F084B2204602F060FB9B
:1023B000124840680A2190FBF1F201FB120084B23E
:1023C000204601F0CBF9002001F0E0F80B4840680E
:1023D0000A2190FBF1F201FB120084B2204602F0C8
:1023E00047FB06484068642190FBF1F084B2204628
:1023F00030E000009A99193F66660640C40000204C
:1024000070616765302E74302E7478743D222564B7
:1024100022000000F000002070616765302E7431EA
:102420002E7478743D222564220000000AD7A33E52
:10243000333363409A99993ECDCCCC3F0000204085
:10244000CDCC0C3F3333C3406666E63FCDCC4C3E2B
:102450009A99394001F082F94FF47A7001F044FF03
:1024600002F0D3FA53484068642190FBF1F084B243
:10247000204602F003FA4F484068642190FBF1F2D5
:1024800001FB12000A2190FBF1F084B2204601F01A
:1024900065F94FF47A7001F027FF02F0B6FA45486B
:1024A0004068642190FBF1F201FB12000A2190FBCD
:1024B000F1F084B2204602F0E1F93E4840680A217A
:1024C00090FBF1F201FB120084B2204601F046F9C4
:1024D0004FF47A7001F008FF02F097FA354840682F
:1024E0000A2190FBF1F201FB120084B2204602F0B7
:1024F000C5F9314A0A21642000F0C0FE2F4A0A21A2
:10250000642000F0EDFC40F6B83001F0EDFEB320A1
:1025100000F09BFC4FF4FA7001F0E6FE00F094FE30
:10252000274A0A21642000F0ADFD40F6B83001F0E2
:10253000DBFE214A0A21642000F009FF4FF4FA6013
:1025400001F0D2FE012001F021F81B4A0A2164208B
:1025500000F0C6FC4FF4FA6001F0C6FE012001F065
:1025600015F8154A0A21642000F0BAFC4FF4FA600D
:1025700001F0BAFE012001F009F80F4A0A21642097
:1025800000F07CFE4FF4FA6001F0AEFE0C4A0A2126
:10259000642000F0A5FC40F6B83001F0A5FE5920FB
:1025A00000F053FC074A0A21642000F099FC00BFA8
:1025B000FEE70000C40000209A99193FCDCC0C40E2
:1025C000CDCC2C400000B040704700BFFEE700BFFC
:1025D000FEE700BFFEE700BFFEE7704770477047A9
:1025E0007047000008B506208DF8000003208DF824
:1025F000010000208DF8020001208DF803006846DC
:10260000FDF7A7FE07208DF8000003208DF80100DC
:1026100001208DF802008DF803006846FDF799FE51
:102620000A208DF8000003208DF8010002208DF8AB
:10263000020001208DF803006846FDF78AFE17208E
:102640008DF8000003208DF801008DF802000120B4
:102650008DF803006846FDF77CFE08BD0EB501212C
:102660000420FEF751FBFFF7BDFF0120ADF8080085
:1026700004208DF80B0002A94C48FEF723F8002136
:102680000846FEF735F90120009000208DF804007F
:1026900008208DF8050001208DF806006846FDF73A
:1026A00031FF0220ADF8080004208DF80B0002A9CC
:1026B0003E48FEF707F801210020FEF719F9022035
:1026C000009000208DF8040008208DF805000120FE
:1026D0008DF806006846FDF715FF1020ADF80800DC
:1026E00004208DF80B0002A93048FDF7EBFF042110
:1026F0000020FEF7FDF81020009000208DF8040067
:1027000008208DF8050001208DF806006846FDF7C9
:10271000F9FE2020ADF8080004208DF80B0002A976
:102720002248FDF7CFFF05210020FEF7E1F8202029
:10273000009000208DF8040008208DF8050001208D
:102740008DF806006846FDF7DDFE0EBD10B50120D0
:10275000FDF73EFF20B1012015490870FDF749FF44
:1027600010BD10B50220FDF733FF28B1012011493B
:1027700008700220FDF73DFF10BD10B51020FDF7D9
:1027800027FF28B101200C4908701020FDF731FF08
:1027900010BD10B52020FDF71BFF28B1012007490F
:1027A00008702020FDF725FF10BD00000008014043
:1027B00028000020290000202A0000202B000020F3
:1027C00008B525208DF8000001208DF801008DF856
:1027D00002008DF803006846FDF7BBFD08BD08B593
:1027E00027208DF8000001208DF8010003208DF8CE
:1027F000020001208DF803006846FDF7AAFD08BD20
:1028000000B585B04FF4A060FDF79EFD01210420C6
:10281000FEF77AFA01218803FEF776FA4FF400708A
:10282000ADF8100018208DF8130003208DF8120069
:1028300004A9FE48FDF746FF4FF48060ADF8100094
:1028400004208DF8130004A9F848FDF73BFF4FF46E
:10285000E13000900020ADF80400ADF80600ADF8BE
:102860000800ADF80C000C20ADF80A006946F048ED
:10287000FFF7FFF9FFF7A4FF012240F22551EC48D2
:10288000FFF78FFA0121EA48FFF77FFA05B000BD94
:1028900000B585B001210820FEF736FA0121880431
:1028A000FEF73FFA4FF48060ADF8100018208DF865
:1028B000130003208DF8120004A9DE48FDF702FF83
:1028C0004FF40060ADF8100004208DF8130004A947
:1028D000D848FDF7F7FE4FF4E13000900020ADF846
:1028E0000400ADF80600ADF80800ADF80C000C20AF
:1028F000ADF80A006946D048FFF7BBF9FFF76FFF54
:10290000012240F22551CC48FFF74BFAFFF767FF51
:102910000121C948FFF739FA05B000BD70B504467A
:102920000D4629462046FFF79DFA00BF802120462C
:10293000FFF706FB0028F9D070BD2DE9F0410746EE
:102940000D461646002405E0295D3846FFF7E6FFF0
:10295000601CC4B2B442F7DB00BF40213846FFF729
:10296000EFFA0028F9D0BDE8F08170B506460C46B4
:10297000002500BF615D3046FFF7D0FF6D1C605D34
:102980000028F7D100BF40213046FFF7D9FA0028D0
:10299000F9D070BD2DE9F04105460C46260AE7B294
:1029A00031462846FFF75EFA00BF80212846FFF730
:1029B000C7FA0028F9D039462846FFF753FA00BF76
:1029C00080212846FFF7BCFA0028F9D0BDE8F08145
:1029D00070B504460D46E1B29748FFF743FA00BFD1
:1029E00080219548FFF7ACFA0028F9D0204670BD49
:1029F00010B5044600BF20218F48FFF7A1FA002838
:102A0000F9D08D48FFF732FA10BD08B500200090CC
:102A100040F225518648FFF7A9FA58B18449091DAB
:102A20000988C8B201F09BFC40F225518048FFF7AD
:102A3000C7FA25E040F224417D48FFF797FAF8B144
:102A40007B4800887A48001D008801F0BFFC7B4964
:102A50000870002000900AE001F096FC7849BDF86B
:102A600000208854BDF80000401C80B20090BDF8E2
:102A70000000724909788842EEDB01207149087034
:102A800008BD10B540F225516B48FFF76FFA0128D9
:102A90007ED16948FFF7EAF9C4B26B48007860B9A3
:102AA000402C09D1694800780028FAD101206649F4
:102AB00008700020664908709FE06348007801288C
:102AC00013D1402C07D1624800780C2803D1022092
:102AD0005D49087091E05F485D49097844545C485D
:102AE0000078401C5A49087087E05748007802284F
:102AF0007ED1402C7CD15748007857490870554802
:102B000040785649087053488078554908705148B4
:102B1000C078544908704F480079534908704D48AF
:102B20004079524908704B488079514908704948AA
:102B3000C079504908704748007A4F4908704548A5
:102B4000407A4E4908704348807A4D4908704148A0
:102B5000C07A4C49087041480078303864214843B5
:102B60003F490978303901EB810100EB41013D48D3
:102B7000007830380844444908803B4800783038B1
:102B80006421484339490978303901EB810100E07B
:102B900092E000EB410136480078303808443B4968
:102BA000088034480078303842F210714843324986
:102BB0000978303901EB4102C2EBC11100EBC101D0
:102BC0002E480078303800EBC00202EB001001EB19
:102BD00080012B480078303800EB800001EB400189
:102BE000284800783038084429490880002000E04F
:102BF00003E01549087015490870174800785228F5
:102C000007D015480078472803D013480078422899
:102C100007D11D4800881F4908801C4800881E49AC
:102C200008800D480078432840D137E00008014073
:102C300000380140000C0140004800402D000020F9
:102C4000300100202C000020510000203400002022
:102C500052000020B0010020350000203600002086
:102C60003700002038000020390000203A00002002
:102C70003B0000203C0000203D0000203E000020E2
:102C80003F000020400000204200002044000020BF
:102C900046000020480000204A000020204800880C
:102CA00020490880204800882049088040F22551AA
:102CB0001F48FFF785F900BF10BD08B5002100913E
:102CC000C0F308011B4A11800AE0BDF80010491C3E
:102CD00089B20091BDF80010B1F5FA5F00DD08BDC2
:102CE0001449091F098801F080010029EDD000BFB7
:102CF000F5E738B504460D4600200090009009E045
:102D00009DF80010605CFFF7D8FF9DF80000401CA4
:102D1000C0B200909DF80000A842F1DB38BD000071
:102D2000420000204C000020440000204E00002003
:102D3000004800400438014010B501210846FDF765
:102D4000E3FF0120FDF717FE0020FDF74AFF0020FA
:102D5000FDF773FB0020FDF70EFE01210148FDF792
:102D600082FD10BD0002300010B50021084601F0C0
:102D7000E9F9012001F0B8FA10BD38B504460D4656
:102D80000020EBB20090A01E82B20021052001F0CD
:102D90007CF9012001F0A8FA0020EBB20090601E3F
:102DA00082B20021022001F070F9012001F09CFAAA
:102DB0000020EBB20090601C82B20021032001F0E1
:102DC00064F9012001F090FA0020EBB20090601C41
:102DD00082B20021042001F058F9012001F084FAA8
:102DE00038BD38B504460D460020EBB20090A01E59
:102DF00082B20121052001F048F9012001F074FAA6
:102E00000020EBB20090601E82B20121022001F08E
:102E10003CF9012001F068FA0020EBB20090601C40
:102E200082B20121032001F030F9012001F05CFAA7
:102E30000020EBB20090601C82B20121042001F05E
:102E400024F9012001F050FA38BD10B50446F848C5
:102E5000006884421FDBF6480068201A02281ADD49
:102E6000F3480068201AB42804DC0A213220FFF756
:102E700084FF03E00A213220FFF7B3FF00BFEC49D3
:102E80000968601A002801DB014600E0414202297E
:102E9000F5DCFFF769FFE6480068A0421FDBE44865
:102EA0000068001B02281ADDE1480068001BB428F6
:102EB00004DC0A213220FFF794FF03E00A213220CC
:102EC000FFF75BFF00BFDA490968601A002801DBE1
:102ED000014600E041420229F5DCFFF745FF10BD45
:102EE0002DE9FE4304460D4616460120D1490860EF
:102EF000D14908600020D1490860D14908603146B5
:102F0000D04802F079FC804602F031FD07460020EF
:102F1000CDE90070EBB20290601E82B20121052063
:102F200001F0DAF8012001F0DFF93146C54802F07E
:102F300063FC804602F01BFD07460020CDE90070CF
:102F4000EBB20290601E82B20121022001F0C4F8AF
:102F5000012001F0C9F93146BA4802F04DFC804623
:102F600002F005FD07460020CDE90070EBB20290AB
:102F7000601C82B20021032001F0AEF8012001F0B4
:102F8000B3F93146AF4802F037FC804602F0EFFC5F
:102F900007460020CDE90070EBB20290601C82B2BF
:102FA0000021042001F098F8012001F09DF9BDE80E
:102FB000FE832DE9FE4304460D46164600209D493A
:102FC00008609D49086001209C4908609C49086090
:102FD00031469C4802F010FC804602F0C8FC0746CF
:102FE0000020CDE90070EBB20290E01E82B2002119
:102FF000052001F071F8012001F076F93146914881
:1030000002F0FAFB804602F0B2FC07460020CDE950
:103010000070EBB20290A01E82B20021022001F0EB
:103020005BF8012001F060F93146864802F0E4FBCC
:10303000804602F09CFC07460020CDE90070EBB210
:103040000290A01C82B20121032001F045F801206A
:1030500001F04AF931467B4802F0CEFB804602F08F
:1030600086FC07460020CDE90070EBB20290A01C60
:1030700082B20121042001F02FF8012001F034F97F
:10308000BDE8FE832DE9FE4304460D4616460120A9
:103090006849086068490860002068490860684914
:1030A00008603146674802F0A7FB804602F05FFCEB
:1030B000074600200121EBB2CDE900710290E01E2D
:1030C00082B2052001F008F8012001F00DF9314627
:1030D0005C4802F091FB804602F049FC0746002064
:1030E0000121EBB2CDE900710290A01E82B2022054
:1030F00000F0F2FF012001F0F7F83146514802F0EC
:103100007BFB804602F033FC074600200121EBB236
:10311000CDE900710290A01C82B20021032000F0D2
:10312000DBFF012001F0E0F83146464802F064FB85
:10313000804602F01CFC074600200121EBB2CDE9DD
:1031400000710290A01C82B20021042000F0C4FF94
:10315000012001F0C9F8BDE8FE832DE9FE430446D5
:103160000D461646002033490860334908600120A7
:1031700032490860324908603146324802F03CFB6F
:10318000804602F0F4FB074600200121EBB2CDE9B6
:1031900000710290A01E82B20021052000F09CFF69
:1031A000012001F0A1F83146264802F025FB8046B7
:1031B00002F0DDFB074600200121EBB2CDE90071F2
:1031C0000290A01E82B20021022000F085FF0120A3
:1031D00001F08AF831461B4802F00EFB804602F0EF
:1031E000C6FB074600200121EBB2CDE90071029039
:1031F000601C82B2032000F06FFF012001F074F820
:103200003146104802F0F8FA804602F0B0FB07465B
:1032100000200121EBB2CDE900710290601C82B266
:10322000042000F059FF012001F05EF8BDE8FE83A4
:103230006C000020A0000020A4000020A8000020B6
:10324000AC0000200000484510B5052000F032FE1B
:10325000012001F049F8022000F02CFE012001F0CD
:1032600043F8032000F026FE012001F03DF8042081
:1032700000F020FE012001F037F810BD2DE9FE43DB
:1032800005460C4616460120F74908600020F7491C
:1032900008600120F64908600020F64908603146C0
:1032A000F54802F0A9FA804602F061FB07460020CB
:1032B000CDE90070E3B22A4601210290052000F01A
:1032C0000BFF012001F010F83146EB4802F094FAB0
:1032D000804602F04CFB07460020CDE90070E3B2C7
:1032E0000290681E82B20021022000F0F5FE01204B
:1032F00000F0FAFF3146E04802F07EFA804602F024
:1033000036FB07460020CDE90070E3B22A460121D2
:103310000290032000F0E0FE012000F0E5FF3146BE
:10332000D54802F069FA804602F021FB07460020EA
:10333000CDE90070E3B20290A81E82B20021042001
:1033400000F0CAFE012000F0CFFFBDE8FE832DE9AA
:10335000FE4305460C4616460020C349086001207E
:10336000C24908600020C24908600120C1490860C4
:103370003146C14802F040FA804602F0F8FA0746AA
:103380000020CDE90070E3B22A46014602900520F4
:1033900000F0A2FE012000F0A7FF3146B64802F07F
:1033A0002BFA804602F0E3FA07460020CDE90070D0
:1033B000E3B22A4601210290022000F08DFE012096
:1033C00000F092FF3146AC4802F016FA804602F057
:1033D000CEFA07460020CDE90070E3B22A46014646
:1033E0000290032000F078FE012000F07DFF3146BE
:1033F000A14802F001FA804602F0B9FA074600201F
:10340000CDE90070E3B22A4601210290042000F0C9
:1034100063FE012000F068FFBDE8FE8308B50020D0
:103420000123052201460090104600F02EFE0120E7
:1034300000F05AFF002001230522014600900220DF
:1034400000F023FE012000F04FFF002001230522A1
:1034500019460090032000F018FE012000F044FF00
:1034600000200123052219460090042000F00DFEE3
:10347000012000F039FF08BD08B500200123052216
:1034800019460090104600F000FE012000F02CFFCD
:1034900000200123052219460090022000F0F5FDCE
:1034A000012000F021FF00200123052201460090A9
:1034B000032000F0EAFD012000F016FF00200123A8
:1034C000052201460090042000F0DFFD012000F0FD
:1034D0000BFF08BD08B5002001230522014600901E
:1034E000104600F0D2FD012000F0FEFE0020012376
:1034F000052219460090022000F0C7FD012000F0CF
:10350000F3FE00200123052201460090032000F075
:10351000BCFD012000F0E8FE002001230522194631
:103520000090042000F0B1FD012000F0DDFE08BD98
:1035300008B500200123052219460090104600F02E
:10354000A4FD012000F0D0FE002001230522014649
:103550000090022000F099FD012000F0C5FE00203F
:103560000123052219460090032000F08EFD012062
:1035700000F0BAFE0020012305220146009004203D
:1035800000F083FD012000F0AFFE08BD10B5044639
:10359000012C63D13949086058E03948006820BBE4
:1035A0003848008808B337480088A72807DAFFF7AB
:1035B00063FF00BF33480088A728FBDB0AE03148DF
:1035C0000088AB2806DDFFF729FF00BF2D480088E3
:1035D000AB28FBDCFFF7C8FB01202949086000206D
:1035E0002949086001202949086028480068012805
:1035F0002CD12548006848BB2548008830B32548B1
:103600000088742807DAFFF765FF00BF21480088AB
:103610007428FBDB0AE01F480088782806DDFFF7E6
:1036200087FF00BF1B4800887828FBDCFFF79CFB66
:1036300001201549086011480068401C0F490860C6
:1036400000200F490860C82000F04EFE0B480068BB
:10365000042803DC0948006800289ED1002C7CD196
:1036600001200649086070E0A0000020A4000020AE
:10367000A8000020AC0000200000484554000020B5
:1036800058000020480000205C000020600000205E
:10369000440000204A000020FE48006820BBFE488D
:1036A000008808B3FD480088A72807DAFFF7E4FE82
:1036B00000BFFA480088A728FBDB0AE0F74800882B
:1036C000AB2806DDFFF7AAFE00BFF4480088AB2850
:1036D000FBDCFFF749FB0120EE4908600020F049C0
:1036E00008600120EF490860EE48006801282CD1ED
:1036F000EB48006848BBEC48008830B3EB480088D2
:10370000752807DAFFF7E6FE00BFE848008874284E
:10371000FBDB0AE0E5480088782806DDFFF708FFB4
:1037200000BFE24800887828FBDCFFF71DFB012082
:10373000DB490860DE480068401CDD490860002065
:10374000D4490860C82000F0CFFDD948006804289B
:1037500003DCD748006800289ED110BD10B5044690
:10376000012C08D100220A216420FFF78BFC4FF4C2
:10377000FA6000F0B9FD022C08D1CE4A0A2164207B
:10378000FFF780FC4FF4FA6000F0AEFD032C08D187
:10379000C94A0A216420FFF775FC4FF4FA6000F073
:1037A000A3FD10BD10B5C54800687B2868D1C44A88
:1037B0000A216420FFF794FB40F6B83000F094FD36
:1037C000BC4A0A216420FFF7C2FD40F2DC5000F041
:1037D0008BFD0020FFF7DAFE012001F049F9B54A20
:1037E0000A216420FFF77CFB40F2DC5000F07CFDF6
:1037F0000020FFF7CBFE022001F03AF9AD4A0A2182
:103800006420FFF76DFB40F2DC5000F06DFD0020FE
:10381000FFF7BCFE032001F02BF9A74A0A21642020
:10382000FFF7C7FB4FF4FA6000F05EFD01F0EDF822
:10383000A04A0A216420FFF753FB40F2DC5000F05D
:1038400053FD01F0E2F89B4A0A216420FFF748FB90
:1038500040F2DC5000F048FD01F0D7F8994A0A2107
:103860006420FFF70BFD4FF4FA6000F03DFD964A2F
:103870000A216420FFF734FB40F6B83000F034FD35
:103880008E48006884285CD18D4A0A216420FFF7A5
:1038900027FB40F6B83000F027FD864A0A21642055
:1038A000FFF755FD40F2DC5000F01EFD0020FFF751
:1038B0006DFE012001F0DCF87F4A0A216420FFF749
:1038C0000FFB4FF4FA6000F00FFD0020FFF75EFEE3
:1038D000032001F0CDF8774A0A216420FFF769FB45
:1038E00040F2DC5000F000FD0020FFF74FFE022008
:1038F00001F0BEF86F4A0A216420FFF75AFB01F07D
:1039000084F86D4A0A216420FFF7EAFA01F07DF895
:10391000684A0A216420FFF74CFB01F076F8694AF7
:103920000A216420FFF7AAFC4FF4FA6000F0DCFCE7
:10393000664A0A216420FFF7D3FA40F6B83000F057
:10394000D3FC5E480068D52868D1614A0A2164200A
:10395000FFF7C6FA40F6B83000F0C6FC554A0A2117
:103960006420FFF7F4FC40F2DC5000F0BDFC0020C6
:10397000FFF70CFE022001F07BF84E4A0A2164207A
:10398000FFF717FB40F2DC5000F0AEFC0020FFF721
:10399000FDFD012001F06CF8474A0A216420FFF781
:1039A0009FFA4FF4FA6000F09FFC0020FFF7EEFD55
:1039B000032001F05DF83F4A0A216420FFF7F9FA7D
:1039C00040F2DC5000F090FC01F01FF8394A0A2167
:1039D0006420FFF7EEFA40F2DC5000F085FC01F0C5
:1039E00014F8354A0A216420FFF77AFA4FF4FA6096
:1039F00000F07AFC01F009F8324A0A216420FFF74E
:103A00003DFC4FF4FA6000F06FFC2F4A0A2164205D
:103A1000FFF766FA40F6B83000F066FC2748006809
:103A2000E7287DD12A4A0A216420FFF759FA40F697
:103A3000B83000F059FC1F4A0A216420FFF787FCC8
:103A400040F2DC5000F050FC0020FFF79FFD022008
:103A500001F00EF8174A0A216420FFF741FA40F2FC
:103A6000DC5000F041FC0020FFF790FD032000F047
:103A7000FFFF114A0A216420FFF79BFA4FF4FA6016
:103A800000F032FC0020FFF781FD012000F0F0FF84
:103A9000084A1FE058000020420000204C0000208F
:103AA0005C00002060000020440000204E00002048
:103AB000540000209A99193F9A99993FC400002018
:103AC0009A9939409A99993ECDCC2C403333534042
:103AD000000060400A216420FFF702FA40F2DC5047
:103AE00000F002FC00F091FF7F4A0A216420FFF7FA
:103AF000F7F940F2DC5000F0F7FB00F086FF7B4A5C
:103B00000A216420FFF755FA4FF4FA6000F0ECFB4D
:103B100000F07BFF764A0A216420FFF7AFFB00E04C
:103B20000CE04FF4FA6000F0DFFB724A0A216420D7
:103B3000FFF7D6F940F6B83000F0D6FB6E480068C3
:103B400040F24111884268D16C4A0A216420FFF793
:103B5000C7F940F6B83000F0C7FB634A0A21642079
:103B6000FFF7F5FB40F2DC5000F0BEFB0020FFF752
:103B70000DFD032000F07CFF5B4A0A216420FFF763
:103B800018FA40F2DC5000F0AFFB0020FFF7FEFC1B
:103B9000022000F06DFF544A0A216420FFF709FA61
:103BA00040F2DC5000F0A0FB0020FFF7EFFC01200A
:103BB00000F05EFF4D4A0A216420FFF791F94FF4AF
:103BC000FA6000F091FB00F020FF474A0A216420D0
:103BD000FFF7EFF940F2DC5000F086FB00F015FF34
:103BE000414A0A216420FFF7E4F940F2DC5000F07A
:103BF0007BFB00F00AFF3E4A0A216420FFF73EFBF0
:103C00004FF4FA6000F070FB3A4A0A216420FFF793
:103C100067F940F6B83000F067FB37480068B0F548
:103C20009C7F5FD1354A0A216420FFF759F940F69D
:103C3000B83000F059FB2C4A0A216420FFF787FBBB
:103C400040F2DC5000F050FB0020FFF79FFC032007
:103C500000F00EFF254A0A216420FFF7AAF94FF46D
:103C6000FA6000F041FB0020FFF790FC012000F01B
:103C7000FFFE1D4A0A216420FFF732F940F2DC50B2
:103C800000F032FB0020FFF781FC022000F0F0FE84
:103C9000154A0A216420FFF723F940F2DC5000F0B6
:103CA00023FB00F0B2FE114A0A216420FFF781F9DC
:103CB00040F2145000F018FB00F0A7FE0A4A0A2157
:103CC0006420FFF70DF940F2DC5000F00DFB00F02E
:103CD0009CFE0B4A0A216420FFF702F940F6B83037
:103CE00000F002FB10BD00009A99193F9A99993F84
:103CF0009A99993E9A997940C400002033338340C1
:103D00003333534010B54FF4A060FCF71DFBFFF7B1
:103D100013F8FEF775FD642000F0E6FA642000F069
:103D2000E3FAFEF7B5FD642000F0DEFA642000F04F
:103D3000DBFA642000F0D8FA012240F2255128482D
:103D4000FEF72FF8012240F225512648FEF729F808
:103D5000012240F225512448FEF723F8012240F2C7
:103D600025512248FEF71DF810BD10B500F098F857
:103D70004FF4FA6000F0B8FA01F014FAFEF740FDD3
:103D800000F0E5FBFEF784FD01F00CF801F08EF881
:103D900000F0DDFB4FF4FA6000F0A6FA00220121EA
:103DA000052000F055F9012000F09EFA00220121C3
:103DB000022000F04DF9012000F096FA00220121C6
:103DC000032000F045F9012000F08EFA00220121C5
:103DD000042000F03DF9012000F086FA10BD00003B
:103DE000003801400044004000480040004C0040C2
:103DF00010B501210D20FCF787FF01218803FCF796
:103E000083FF01212848FCF72EFD10BD00B585B0C9
:103E10004FF40070ADF8100003208DF81200182048
:103E20008DF8130004A92148FCF74CFC4FF4806086
:103E3000ADF8100048208DF8130004A91B48FCF7CA
:103E400041FC4FF4E13000900020ADF80400ADF8E3
:103E50000600ADF80800ADF80C000C20ADF80A0023
:103E600069461348FDF705FF114800881048001DFA
:103E7000008840F225510E48FEF7A2F8012240F2D8
:103E800025510B48FDF78DFF012240F224410848DF
:103E9000FDF787FF01210648FDF777FF05B000BD5C
:103EA00010B5FFF7A5FF10BD00023000000801406B
:103EB000003801401FB50446002000900190029098
:103EC00003908DF800400A208DF801006D208DF8D8
:103ED00002006B208DF8030004216846FEF709FFFD
:103EE0001FBD1FB504460020009001900290039072
:103EF0008DF800400E208DF8010052208DF8020050
:103F00006B208DF8030004216846FEF7F2FE1FBD0A
:103F10007FB506460D4600240020009001900290D7
:103F200003900DF80460641C112D68D2DFE805F0E1
:103F3000090F151B672167272D33393F6745515CF2
:103F40004B001F200DF80400601CC4B258E0202074
:103F50000DF80400601CC4B252E021200DF80400EA
:103F6000601CC4B24CE024200DF80400601CC4B2F4
:103F700046E027200DF80400601CC4B240E0312068
:103F80000DF80400601CC4B23AE033200DF80400C0
:103F9000601CC4B234E035200DF80400601CC4B2CB
:103FA0002EE036200DF80400601CC4B228E0372053
:103FB0000DF80400601CC4B222E03A200DF80400A1
:103FC000601CC4B21CE03B200DF80400601CC4B2AD
:103FD00016E042200DF80400601CC4B26C200DF8FD
:103FE0000400601CC4B20BE043200DF80400601C08
:103FF000C4B27A200DF80400601CC4B200E000BF17
:1040000000BF6B200DF80400601CC4B22146684656
:10401000FEF76FFE7FBD7FB506460C4615460020B5
:1040200000900190029003908DF8006046208DF87A
:10403000010069208DF802008DF803408DF80450CE
:104040006B208DF8050006216846FEF752FE7FBD05
:104050007FB506460C461546002000900190029060
:1040600003908DF80060F3208DF80100AB208DF8EF
:1040700002008DF803408DF804506B208DF8050088
:1040800006216846FEF735FE7FBD2DE9FF41054656
:104090000F4614461E46DDF828800020009001904F
:1040A000029003908DF80050F6208DF801008DF8F5
:1040B000027020128DF80300E0B28DF804008DF834
:1040C00005608DF806806B208DF807000821684692
:1040D000FEF70FFEBDE8FF812DE9FF4706460F46BC
:1040E00015469846DDE90D9A0C9C00200090019041
:1040F000029003908DF80060FD208DF801008DF88E
:10410000027028128DF80300E8B28DF804008DF8D3
:104110000580200E8DF80600200C8DF80700200A7F
:104120008DF80800E0B28DF809008DF80A908DF83E
:104130000BA06B208DF80C000D216846FEF7D9FD11
:10414000BDE8FF877FB505460C4600200090019032
:10415000029003908DF80050FE208DF80100982009
:104160008DF802008DF803406B208DF804000521C6
:104170006846FEF7BEFD7FBD1FB5044600200090D7
:104180000190029003908DF80040FF208DF801000F
:1041900066208DF802006B208DF80300042168462C
:1041A000FEF7A7FD1FBD7FB505460C460020009019
:1041B0000190029003908DF8005093208DF801003B
:1041C00088208DF802008DF803406B208DF80400E4
:1041D00005216846FEF78DFD7FBD2DE9F04F89B0C2
:1041E00005460E461746984613AC94E8100E20215B
:1041F00001A801F0F6FA8DF804504C208DF8050066
:10420000AE208DF806008DF807608DF808708DF8E7
:104210000980129800128DF80A001298C0B28DF829
:104220000B00200E8DF80C00200C8DF80D00200ADC
:104230008DF80E00E0B28DF80F004FEA29208DF8BE
:10424000100009F0FF008DF811004FEA2A208DF8C8
:1042500012000AF0FF008DF813004FEA2B208DF8B2
:1042600014000BF0FF008DF8150017988DF816005C
:104270006B208DF81700142101A8FEF73AFD09B054
:10428000BDE8F08F7FB506460C461546002000902D
:104290000190029003908DF800609A208DF8010043
:1042A0008DF802408DF803506B208DF80400052135
:1042B0006846FEF71EFD7FBD1FB504460020009036
:1042C0000190029003908DF800409C208DF8010031
:1042D00048208DF802006B208DF803000421684609
:1042E000FEF707FD1FBD000008B5002100916FF02B
:1042F0007F414FF0E0225161002191610521116160
:1043000014E000214FF0E0229161104909684FF458
:104310007A72B1FBF2F1C1F18071009100BF4FF0F0
:10432000E0218969009A9142F9D8401E0028E8DC12
:104330004FF0E021096921F001014FF0E022116105
:1043400008BD00E0401E0028FCDC70470000002093
:1043500000202C4981F8010181F8000170472949AA
:1043600091F80011274A22F81100114691F8001126
:10437000491C82F80011114691F80011802902DBD6
:10438000002182F80011704700201E4991F80111A8
:104390001C4A32F81100114691F80111491C82F8AB
:1043A0000111114691F80111802902DB002182F8E8
:1043B00001117047134890F80101124991F800115A
:1043C000884201D1012070470020FCE70D4890F899
:1043D00001010C4991F80011884208DC094890F865
:1043E0000001084991F80111401A80B27047054850
:1043F00090F80101C0F18000024991F800110844D1
:1044000080B2F3E7BC01002008B501210820FCF7C9
:104410007BFC4020ADF8000018208DF8030003203D
:104420008DF802006946FE48FCF74CF9012108208E
:10443000FCF76AFC8020ADF8000018208DF803001E
:1044400003208DF802006946F548FCF73BF901218D
:104450000820FCF759FC4FF48070ADF800001820DC
:104460008DF8030003208DF802006946EC48FCF744
:1044700029F901210820FCF747FC4FF40070ADF842
:10448000000018208DF8030003208DF80200694613
:10449000E348FCF717F908BD00B587B001210420F7
:1044A000FCF73FFC40F2CF70ADF8140040F2CF2093
:1044B000ADF810000020ADF81600ADF812008DF830
:1044C000180004A9D748FCF757FD6020ADF800009C
:1044D0000020ADF808000120ADF802000002ADF8A0
:1044E0000C000120ADF802000020ADF80400ADF88A
:1044F0000A00ADF80E00ADF806006946CA48FCF7A0
:1045000078FD6946C748FCF774FD0821C548FDF7EA
:10451000BFF96946C348FCF7AEFD0821C148FDF765
:10452000C0F96946BF48FCF7F3FD0821BD48FDF717
:10453000C5F96946BB48FCF736FE0821B948FDF7C6
:10454000C6F90121B748FDF773F807B000BD10B5F3
:10455000FFF75AFFFFF7A0FF10BD70B506460C46E7
:10456000012E06D0022E0AD0032E0ED0042E18D112
:1045700011E0A5B22946AB48FDF7F2FA12E0A5B268
:104580002946A848FDF7EEFA0CE0A5B22946A54851
:10459000FDF7EAFA06E0A5B22946A248FDF7E6FAD9
:1045A00000E000BF00BF70BD10B532210120FFF751
:1045B000D4FF50210420FFF7D0FF4FF47A70FFF7AB
:1045C00093FE10BD10B50446012C04D0022C07D078
:1045D000032C0FD109E058210320FFF7BEFF0AE0AA
:1045E00099210320FFF7B9FF05E0DC210320FFF745
:1045F000B4FF00E000BF00BF10BDFEB507460126B6
:10460000012F04D0022F64D0032F75D1C4E0002005
:10461000012140F6B8320346CDE9002102904FF463
:10462000C87201460620FFF757FD4FF47A70FFF776
:104630005BFE4BE07D4804887D4805884FF496700A
:10464000FFF752FE794A1288111B002901DB0A4646
:1046500000E04A42142A39DC754A1288501B0028AF
:1046600001DB024600E04242142A2FDC714A127834
:10467000522A2BD16D4A1288642A27DB6B4A128892
:10468000F02A23DC6A4A12883C2A1FDB684A128817
:10469000B42A1BDC50210420FFF75FFF9621042081
:1046A000FFF75BFF4FF47A70FFF71EFE0020012139
:1046B000CDE9000103464FF4C87202900620FFF7CF
:1046C0000BFD4FF47A70FFF70FFE0226012EB1D0DA
:1046D000D2E0002001214FF47A620346CDE90021A7
:1046E00002904FF4C87201460620FFF7F5FC4FF424
:1046F0007A70FFF7F9FD4CE0BDE04C4804884C4867
:1047000005884FF49670FFF7EFFD484A1288111B99
:10471000002901DB0A4600E04A42142A39DC444AF7
:104720001288501B002801DB024600E04242142A96
:104730002FDC404A1278472A2BD13C4A1288642A3F
:1047400027DB3A4A1288F02A23DC394A12883C2AAD
:104750001FDB374A1288B42A1BDC50210420FFF7E4
:10476000FCFE96210420FFF7F8FE4FF47A70FFF765
:10477000BBFD00200121CDE9000103464FF4C872C2
:1047800002900620FFF7A8FC4FF47A70FFF7ACFD0B
:104790000226012EB1D06FE0002001214FF47A6291
:1047A0000346CDE9002102904FF4C872014606206D
:1047B000FFF792FC4FF47A70FFF796FD58E01B4824
:1047C00004881B4805884FF49670FFF78DFD174A43
:1047D0001288111B002901DB0A4600E04A42142A14
:1047E00046DC134A1288501B002801DB024600E019
:1047F0004242142A3CDC0F4A1278422A38D10B4A32
:104800001288642A34DB094A1288F02A30DC084A0C
:1048100012883C2A2CDB064A1288B42A28DC0BE0DA
:10482000000C014000080040002C0140480000201E
:104830004A0000203500002050210420FFF78DFEA3
:1048400096210420FFF789FE4FF47A70FFF74CFDA4
:1048500000200121CDE9000103464FF4C872029007
:104860000620FFF739FC4FF47A70FFF73DFD022672
:10487000012EA4D000E000BF00BFFEBD3EB504463F
:104880002046FFF79FFE012020B902283FD00328D1
:104890007AD17AE0F2210120FFF75FFE0120FFF7D5
:1048A00023FD40F2DC50FFF71FFD0020012140F600
:1048B000E4420346CDE9002102904FF4967201468E
:1048C0000620FFF709FC4FF4FA70FFF70DFD5021A9
:1048D0000420FFF742FE4FF4FA70FFF705FD0020B9
:1048E0000121CDE9000103464FF4967202900620A3
:1048F000FFF7F2FB4FF4FA70FFF7F6FC32210120CC
:10490000FFF72BFE4FF4FA70FFF7EEFC7BE0F2218D
:104910000120FFF722FE0120FFF7E6FC40F2DC5009
:10492000FFF7E2FC0020012140F6E4420346CDE916
:10493000002102904FF4967201460620FFF7CCFB4F
:104940004FF4FA70FFF7D0FC50210420FFF705FE6A
:104950004FF4FA70FFF7C8FC00200121CDE90001F7
:1049600003464FF4967202900620FFF7B5FB4FF412
:10497000FA70FFF7B9FC32210120FFF7EEFD4FF48A
:10498000FA70FFF7B1FC3EE03CE0F2210120FFF7B6
:10499000E4FD0120FFF7A8FC40F2DC50FFF7A4FC87
:1049A0000020012140F6E4420346CDE900210290B7
:1049B0004FF4967201460620FFF78EFB4FF4FA7013
:1049C000FFF792FC50210420FFF7C7FD4FF4FA7067
:1049D000FFF78AFC00200121CDE9000103464FF4D6
:1049E000967202900620FFF777FB4FF4FA70FFF7FC
:1049F0007BFC32210120FFF7B0FD4FF4FA70FFF786
:104A000073FC00E000BF00BF3EBD0EB532210120A7
:104A1000FFF7A3FD50210420FFF79FFD0020012197
:104A200042F6F8220346CDE9002102904FF4C87205
:104A300001460620FFF750FB4FF47A70FFF754FC55
:104A400096210420FFF789FD4FF47A70FFF74CFCA4
:104A500000200121CDE9000103464FF4C872029005
:104A60000620FFF739FB4FF47A70FFF73DFC0EBDCF
:104A70003EB504462046FFF7A5FD012020B90228D7
:104A800065D003287ED1C7E0F2210120FFF765FD44
:104A900040F2DC50FFF728FC0020012140F6E44200
:104AA0000346CDE9002102904FF49672014606209C
:104AB000FFF712FB40F2DC50FFF716FC96210420B2
:104AC000FFF74BFD40F2DC50FFF70EFC0020012108
:104AD000CDE9000103464FF4967202900620FFF7DD
:104AE000FBFA4FF4FA70FFF7FFFB32210120FFF7CA
:104AF00034FD40F2DC50FFF7F7FB0020012142F6C5
:104B0000F8220346CDE9002102904FF4C872014615
:104B10000620FFF7E1FA4FF47A70FFF7E5FB50212A
:104B20000420FFF71AFD4FF47A70FFF7DDFB002039
:104B30000121CDE9000103464FF4C872029006201E
:104B4000FFF7CAFA4FF47A70FFF7CEFBC8E0F22104
:104B50000120FFF702FD40F2DC50FFF7C5FB00200B
:104B6000012140F6E4420346CDE9002102904FF4D2
:104B7000967201460620FFF7AFFA40F2DC50FFF7CD
:104B8000B3FB00E0ABE096210420FFF7E6FC40F227
:104B9000DC50FFF7A9FB00200121CDE9000103460D
:104BA0004FF4967202900620FFF796FA40F2DC501E
:104BB000FFF79AFB32210120FFF7CFFC40F2DC50D7
:104BC000FFF792FB0020012142F210720346CDE96B
:104BD000002102904FF4C87201460620FFF77CFACC
:104BE0004FF47A70FFF780FB50210420FFF7B5FCEB
:104BF0004FF47A70FFF778FB00200121CDE9000126
:104C000003464FF4C87202900620FFF765FA4FF48E
:104C10007A70FFF769FB63E0F2210120FFF79DFC4A
:104C200040F2DC50FFF760FB0020012140F6E44237
:104C30000346CDE9002102904FF49672014606200A
:104C4000FFF74AFA40F2DC50FFF74EFB96210420B2
:104C5000FFF783FC40F2DC50FFF746FB0020012108
:104C6000CDE9000103464FF4967202900620FFF74B
:104C700033FA4FF4FA70FFF737FB32210120FFF7C8
:104C80006CFC40F2DC50FFF72FFB0020012142F2C8
:104C900010720346CDE9002102904FF4C87201461C
:104CA0000620FFF719FA4FF47A70FFF71DFB502129
:104CB0000420FFF752FC4FF47A70FFF715FB002039
:104CC0000121CDE9000103464FF4C872029006208D
:104CD000FFF702FA4FF47A70FFF706FB00E000BF1F
:104CE00000BF3EBD10B540F225515048FDF73EF9DA
:104CF000002847D04D48FDF7B9F8C4B24C480078B9
:104D000010B1012820D10FE0AA2C09D14948484907
:104D10000978445446480078401C4549087002E030
:104D200000204349087026E0AF2C09D14148404992
:104D3000097844543E480078401C3D49087002E020
:104D400000203B49087016E0394800780E2808DA40
:104D5000384837490978445435480078401C34496C
:104D60000870334800780E2804D100F0F9FB0020C9
:104D70002F49087000BF00BF2F49086800F0F7FDF9
:104D80002E49086010BD08B535208DF800000120BF
:104D90008DF801008DF802008DF803006846FBF7DE
:104DA000D8FA08BD00B585B02048FCF71FFF0121E7
:104DB0003020FBF7A9FF01210805FBF7B2FF4FF4F4
:104DC0008050ADF8100018208DF8130003208DF8E6
:104DD000120004A91A48FBF775FC0420ADF8100076
:104DE0008DF8130004A91748FBF76CFC16480090D7
:104DF0000020ADF80400ADF80600ADF80800ADF8ED
:104E00000C000C20ADF80A0069460848FCF731FF99
:104E1000FFF7B9FF012240F225510448FCF7C1FF1A
:104E200001210248FCF7B1FF05B000BD0050004071
:104E3000D8000020DA0200200C0300206C000020C3
:104E4000001001400014014020A1070070B5044685
:104E5000002510E0605D68B1615D1348FDF702F860
:104E600000BF80211048FDF76BF80028F9D0681CBE
:104E7000C5B200E070BDEDE770B5044600250FE057
:104E80005CB1A1B20848FCF7EDFF00BF80210648E5
:104E9000FDF756F80028F9D000E070BD681CC5B2D7
:104EA000032DEDDB00BFF8E7004C004000B587B0F4
:104EB0000121C804FBF735FF01211020FBF724FF77
:104EC000A148FCF793FE4FF48060ADF80800012084
:104ED0008DF80A0018208DF80B0002A99B48FBF7FB
:104EE000F1FB4FF40060ADF8080048208DF80B008E
:104EF00002A99648FBF7E6FB34208DF80400022057
:104F00008DF8050003208DF8060001208DF80700BC
:104F100001A8FBF71EFA4FF4165003900020ADF8DD
:104F20001000ADF81200ADF81400ADF818000C2018
:104F3000ADF8160003A98448FCF79BFE012240F25D
:104F400025518148FCF72DFF01217F48FCF71DFF0B
:104F500007B000BD10B540F225517B48FDF706F8BB
:104F600001287DD181037A48FBF75BFC4FF4805127
:104F70007748FBF754FC4FF400517548FBF74FFCA2
:104F80007148FCF773FFC4B27248007860B9402CD6
:104F900009D1714800780028FAD101206D490870C4
:104FA00000206E4908709FE06A480078012813D1FC
:104FB000402C07D1694800780C2803D102206549AC
:104FC000087091E066486549097844546348007860
:104FD000401C6249087087E05E48007802287DD155
:104FE000402C7BD15E4800785E4908705C48407870
:104FF0005D4908705A4880785C4908705848C07804
:105000005B490870564800795A49087054484079FD
:105010005949087052488079584908705048C079F9
:10502000574908704E48007A564908704C48407AF3
:10503000554908704A48807A544908704848C07AEF
:10504000534908704848007830386421484347493C
:105050000978303901EB810100EB4101444800E05F
:1050600070E00078303808444A49088041480078A8
:1050700030386421484340490978303901EB8101D7
:1050800000EB41013D48007830380844424908802F
:105090003B480078303842F210714843394909786A
:1050A000303901EB4102C2EBC11100EBC1013648BE
:1050B0000078303800EBC00202EB001001EB8001F9
:1050C00032480078303800EB800001EB4001304876
:1050D0000078303808443149088000E004E00020BE
:1050E0001C4908701C4908701E480078532823D1B9
:1050F0001D4800783038642148431C49097830390C
:1051000001EB810100EB4101194800783038084477
:10511000234908601748007830386421484316490D
:105120000978303901EB810100EB41011348007827
:10513000303808441A49486040F225510248FCF7CB
:105140003FFF00BF10BD0000004C004000100140B8
:10515000000C0140CC000020B0000020CD00002059
:10516000BE020020B1000020B2000020B3000020E9
:10517000B4000020B5000020B6000020B7000020D9
:10518000B8000020B9000020BA000020BB000020B9
:10519000BC000020BE000020C0000020C200002093
:1051A000C400002000B587B001214804FBF7B9FD19
:1051B00001210420FBF7A8FD2448FCF717FD04207B
:1051C000ADF8080001208DF80A0018208DF80B00BA
:1051D00002A91F48FBF776FA0820ADF8080048201E
:1051E0008DF80B0002A91A48FBF76CFA26208DF8FF
:1051F000040001208DF8050003208DF80600012031
:105200008DF8070001A8FBF7A4F84FF4E1300390F4
:105210000020ADF81000ADF81200ADF81400ADF8A4
:1052200018000C20ADF8160003A90848FCF721FD72
:10523000012240F225510548FCF7B3FD0121034846
:10524000FCF7A3FD07B000BD70470000004400401C
:10525000000801402DE9F041064600240027002502
:10526000E748867000BF07E0E548405D2044C4B2CF
:105270003819C7B2681CC5B2032DF5DBE048C4700D
:10528000077105220146DF48FDF757FBBDE8F081B5
:105290002DE9FC474FF0010840F21F494FF4806AA6
:1052A000D9488168D9A000F0DDFCD748C168DCA0EE
:1052B00000F0D8FCD448407968B14FF004084FF4AE
:1052C0007849D1488168DBA000F0CCFCCE48C168A9
:1052D000DDA000F0C7FCCC488169E0A000F0C2FC72
:1052E000C948006900EB80004000172190FBF1F0F5
:1052F0000A30C6B2C448406900EB8000400090FB11
:10530000F1F0C0F1C200C7B2BF48806800EB800076
:10531000400090FBF1F00A30C4B2BB48C06800EB1B
:105320008000400090FBF1F0C0F1C200C5B24346DE
:105330002A462146CEA0CDF8009000F093FC2346EB
:105340003A463146CFA0CDE9005A00F08BFCBDE8CB
:10535000FC872DE9F0474FF00009CA46002400BF42
:105360000AE0CE48005D484400F0FF090AEB09005E
:1053700000F0FF0A601CC4B2102CF2DBC748807832
:10538000A1490870C548C0784870C4480079887041
:10539000C2484079C870C14880790871BF48C07957
:1053A0004871BE48007ABD49497A00EB0120BB49EB
:1053B000897A00EB0140B949C97A00EB0160924952
:1053C0008860B648007BB549497B00EB0120B349B2
:1053D000897B00EB0140B149C97B00EB01608A4940
:1053E000C86008468068283088600846C068283051
:1053F000C86008460078012803D1A9A000F032FC5B
:1054000002E0ADA000F02EFC7F484078012803D1D7
:10541000AFA000F027FC02E0B3A000F023FC7A4824
:105420008078012803D1B6A000F01CFC02E0BAA0ED
:1054300000F018FC7448C078012803D1BCA000F02B
:1054400011FC02E0C0A000F00DFC6F4800790128BB
:1054500003D1C3A000F006FC02E0C7A000F002FCEC
:1054600069488168CAA000F0FDFB6748C168CDA00B
:1054700000F0F8FB6448806863490969401A624992
:10548000C8610846C0684969401A5F490862C9692D
:1054900049435D4A126A5C4B1B6A02FB031000F031
:1054A00055FA074600F0C7FC054600F079FA564960
:1054B0008969084454498861FFF7EAFE52488068C8
:1054C000514908610846C0684861BDE8F0872DE988
:1054D000F0410646002400270025B748867000BF2B
:1054E00007E0B548405D2044C4B23819C7B2681C13
:1054F000C5B2032DF5DBB048C47007710522014623
:10550000AE48FDF71AFABDE8F08110B50020002280
:10551000002100BF07E0AA4B5B5C0344D8B213181C
:10552000DAB24B1CD9B20629F5DBA54B9B79834235
:1055300015D1A34BDB79934211D1A14B9B78A04CA1
:10554000E47803EB04231BB29E4C23809C4B1B7915
:105550009B4C647903EB04231BB29A4C638010BD0F
:105560002DE9F0470024A246A14600BF0CE0964872
:1055700010F809002044C4B20AEB040000F0FF0A4E
:1055800009F1010000F0FF098F48C078001D48456F
:10559000EDDC8D48C078001D8B49085CA0422DD100
:1055A0000846C078401D085C504527D108468078E1
:1055B000032811D1097A844A527A01EB022108B2F8
:1055C00000F0C4F907460022804B00F047F9054679
:1055D00000F0FFF97E4908607D49086800F0C7F9CE
:1055E00000B200F5B4704FF4B47190FBF1F201FB1E
:1055F0001205284600F0A1F975490860BDE8F0875A
:10560000DE00002000380140E8020020706167657C
:10561000322E78302E76616C3D2564FFFFFF00004E
:1056200070616765322E78312E76616C3D2564FF9E
:10563000FFFF000070616765322E78322E76616C54
:105640003D2564FFFFFF000070616765322E7833EF
:105650002E76616C3D2564FFFFFF00007061676579
:10566000322E78342E76616C3D2564FFFFFF0000FA
:10567000636972732025642C25642C25642C2564B1
:10568000FFFFFF006C696E652025642C25642C25C6
:10569000642C25642C2564FFFFFF0000CC02002051
:1056A00070616765302E74302E62636F3D32303129
:1056B00036FFFFFF0000000070616765302E743018
:1056C0002E62636F3D3633343838FFFFFF00000031
:1056D00070616765302E74312E62636F3D323031F8
:1056E00036FFFFFF0000000070616765302E7431E7
:1056F0002E62636F3D3633343838FFFFFF00000001
:1057000070616765302E74322E62636F3D323031C6
:1057100036FFFFFF0000000070616765302E7432B5
:105720002E62636F3D3633343838FFFFFF000000D0
:1057300070616765302E74332E62636F3D32303195
:1057400036FFFFFF0000000070616765302E743384
:105750002E62636F3D3633343838FFFFFF000000A0
:1057600070616765302E74342E62636F3D32303164
:1057700036FFFFFF0000000070616765302E743453
:105780002E62636F3D3633343838FFFFFF00000070
:1057900070616765302E78302E76616C3D2564FF30
:1057A000FFFF000070616765302E78312E76616CE6
:1057B0003D2564FFFFFF0000E3000020004400409F
:1057C000CE000020DA000020DA020020000059405C
:1057D0000C030020D2B201E000F8012B491EFBD2DD
:1057E00070470022F6E710B513460A4604461946EC
:1057F000FFF7F0FF204610BD80EA010210B502F06D
:105800000043400022D04A001FD0010E01EB12617C
:10581000C0F35600C2F3560240F4000042F4000206
:10582000A0FB022000047F39140400D0401C50EA81
:10583000124001D44000491EC2B20C0604EBD01045
:10584000401C4008802A02D003E0002010BD20F058
:105850000100002900DA0020184310BD2DE9F04DA9
:1058600081EA030404F0004B21F0004514464FF098
:10587000000A23F0004150EA050220D054EA010258
:105880001DD0C5F30A570246C5F31303C1F3130035
:10589000C1F30A5640F4801543F48013A7EB0608C1
:1058A000101BD64608F2FD3873EB050002D308F151
:1058B000010801E092185B41B8F1000F03DA002003
:1058C0000146BDE8F08D00204FF480110646844665
:1058D0000EE0171B73EB050705D3121B63EB0503E3
:1058E00006434CEA010C49084FEA300092185B412C
:1058F00050EA0107EDD152EA030012D082EA040017
:1059000083EA0501084305D0101BAB4106D20122F2
:10591000002306E000224FF0004302E06FF0010296
:1059200053101AEB06004CEB085110EB0A0041EB48
:105930000B01BDE8F04D00F0C5B8C10F80EAE07082
:105940000844CA079623002100F08EB80EB5C10F97
:1059500080EAE0700844CA07002140F233438DE832
:105960000E000A460B4600F0BCF803B000BD00F084
:10597000004220F00040C10DC0F3160040F40000CA
:105980007F2901DA00207047962903DCC1F19601D6
:10599000C84001E096398840002AF4D04042704760
:1059A000C1F30A5210B5C1F3130140F2FF3341F4C1
:1059B00080119A4201DA002010BD40F233439A422E
:1059C000A2F2334203DC524200F035F810BD9040A1
:1059D00010BD01F0004330B421F0004150EA010253
:1059E00006D00A0DA2F56072C1F31301002A02DC91
:1059F00030BC00207047440F44EAC104C100E018E5
:105A000030BC00EBC25000F026B830B50B46014662
:105A100000202022012409E021FA02F59D4205D34D
:105A200003FA02F5491B04FA02F52844151EA2F1F7
:105A30000102F1DC30BD202A04DB203A21FA02F019
:105A40000021704721FA02F3D040C2F120029140B8
:105A50000843194670470029A8BF7047401C4900F9
:105A600008BF20F00100704710B4B0FA80FC00FAC3
:105A70000CF050EA010404BF10BC704749B1CCF1EE
:105A8000200421FA04F411FA0CF118BF012121437A
:105A90000843A3EB0C01CB1D4FEA00614FEA102035
:105AA00042BF002010BC704700EBC35010440029D7
:105AB000A4BF10BC7047401C490008BF20F0010083
:105AC00010BC704710B5141E73F1000408DA401CB6
:105AD00041F1000192185B411A4301D120F001000D
